{
  "contractName": "SolidityDrive",
  "abi": [
    {
      "inputs": [
        {
          "internalType": "address",
          "name": "",
          "type": "address"
        },
        {
          "internalType": "uint256",
          "name": "",
          "type": "uint256"
        }
      ],
      "name": "files",
      "outputs": [
        {
          "internalType": "string",
          "name": "hash",
          "type": "string"
        },
        {
          "internalType": "string",
          "name": "fileName",
          "type": "string"
        },
        {
          "internalType": "string",
          "name": "fileType",
          "type": "string"
        },
        {
          "internalType": "uint256",
          "name": "date",
          "type": "uint256"
        }
      ],
      "stateMutability": "view",
      "type": "function",
      "constant": true
    },
    {
      "inputs": [
        {
          "internalType": "string",
          "name": "_hash",
          "type": "string"
        },
        {
          "internalType": "string",
          "name": "_fileName",
          "type": "string"
        },
        {
          "internalType": "string",
          "name": "_fileType",
          "type": "string"
        },
        {
          "internalType": "uint256",
          "name": "_date",
          "type": "uint256"
        }
      ],
      "name": "add",
      "outputs": [],
      "stateMutability": "nonpayable",
      "type": "function"
    },
    {
      "inputs": [
        {
          "internalType": "uint256",
          "name": "_index",
          "type": "uint256"
        }
      ],
      "name": "getFile",
      "outputs": [
        {
          "internalType": "string",
          "name": "",
          "type": "string"
        },
        {
          "internalType": "string",
          "name": "",
          "type": "string"
        },
        {
          "internalType": "string",
          "name": "",
          "type": "string"
        },
        {
          "internalType": "uint256",
          "name": "",
          "type": "uint256"
        }
      ],
      "stateMutability": "view",
      "type": "function",
      "constant": true
    },
    {
      "inputs": [],
      "name": "getLength",
      "outputs": [
        {
          "internalType": "uint256",
          "name": "",
          "type": "uint256"
        }
      ],
      "stateMutability": "view",
      "type": "function",
      "constant": true
    }
  ],
  "bytecode": "0x608060405234801561001057600080fd5b50610bf1806100206000396000f3fe608060405234801561001057600080fd5b506004361061004c5760003560e01c80632ba6978e146100515780632bfda313146100845780633f647a97146100b7578063be1c766b146100d3575b600080fd5b61006b600480360381019061006691906107b2565b6100f1565b60405161007b949392919061089a565b60405180910390f35b61009e600480360381019061009991906108f4565b6102d6565b6040516100ae949392919061089a565b60405180910390f35b6100d160048036038101906100cc9190610a56565b61052d565b005b6100db61061e565b6040516100e89190610b11565b60405180910390f35b6000602052816000526040600020818154811061010d57600080fd5b90600052602060002090600402016000915091505080600001805461013190610b5b565b80601f016020809104026020016040519081016040528092919081815260200182805461015d90610b5b565b80156101aa5780601f1061017f576101008083540402835291602001916101aa565b820191906000526020600020905b81548152906001019060200180831161018d57829003601f168201915b5050505050908060010180546101bf90610b5b565b80601f01602080910402602001604051908101604052809291908181526020018280546101eb90610b5b565b80156102385780601f1061020d57610100808354040283529160200191610238565b820191906000526020600020905b81548152906001019060200180831161021b57829003601f168201915b50505050509080600201805461024d90610b5b565b80601f016020809104026020016040519081016040528092919081815260200182805461027990610b5b565b80156102c65780601f1061029b576101008083540402835291602001916102c6565b820191906000526020600020905b8154815290600101906020018083116102a957829003601f168201915b5050505050908060030154905084565b60608060606000806000803373ffffffffffffffffffffffffffffffffffffffff1673ffffffffffffffffffffffffffffffffffffffff168152602001908152602001600020868154811061032e5761032d610b8c565b5b906000526020600020906004020160405180608001604052908160008201805461035790610b5b565b80601f016020809104026020016040519081016040528092919081815260200182805461038390610b5b565b80156103d05780601f106103a5576101008083540402835291602001916103d0565b820191906000526020600020905b8154815290600101906020018083116103b357829003601f168201915b505050505081526020016001820180546103e990610b5b565b80601f016020809104026020016040519081016040528092919081815260200182805461041590610b5b565b80156104625780601f1061043757610100808354040283529160200191610462565b820191906000526020600020905b81548152906001019060200180831161044557829003601f168201915b5050505050815260200160028201805461047b90610b5b565b80601f01602080910402602001604051908101604052809291908181526020018280546104a790610b5b565b80156104f45780601f106104c9576101008083540402835291602001916104f4565b820191906000526020600020905b8154815290600101906020018083116104d757829003601f168201915b50505050508152602001600382015481525050905080600001518160200151826040015183606001519450945094509450509193509193565b6000803373ffffffffffffffffffffffffffffffffffffffff1673ffffffffffffffffffffffffffffffffffffffff168152602001908152602001600020604051806080016040528086815260200185815260200184815260200183815250908060018154018082558091505060019003906000526020600020906004020160009091909190915060008201518160000190805190602001906105d1929190610667565b5060208201518160010190805190602001906105ee929190610667565b50604082015181600201908051906020019061060b929190610667565b5060608201518160030155505050505050565b60008060003373ffffffffffffffffffffffffffffffffffffffff1673ffffffffffffffffffffffffffffffffffffffff16815260200190815260200160002080549050905090565b82805461067390610b5b565b90600052602060002090601f01602090048101928261069557600085556106dc565b82601f106106ae57805160ff19168380011785556106dc565b828001600101855582156106dc579182015b828111156106db5782518255916020019190600101906106c0565b5b5090506106e991906106ed565b5090565b5b808211156107065760008160009055506001016106ee565b5090565b6000604051905090565b600080fd5b600080fd5b600073ffffffffffffffffffffffffffffffffffffffff82169050919050565b60006107498261071e565b9050919050565b6107598161073e565b811461076457600080fd5b50565b60008135905061077681610750565b92915050565b6000819050919050565b61078f8161077c565b811461079a57600080fd5b50565b6000813590506107ac81610786565b92915050565b600080604083850312156107c9576107c8610714565b5b60006107d785828601610767565b92505060206107e88582860161079d565b9150509250929050565b600081519050919050565b600082825260208201905092915050565b60005b8381101561082c578082015181840152602081019050610811565b8381111561083b576000848401525b50505050565b6000601f19601f8301169050919050565b600061085d826107f2565b61086781856107fd565b935061087781856020860161080e565b61088081610841565b840191505092915050565b6108948161077c565b82525050565b600060808201905081810360008301526108b48187610852565b905081810360208301526108c88186610852565b905081810360408301526108dc8185610852565b90506108eb606083018461088b565b95945050505050565b60006020828403121561090a57610909610714565b5b60006109188482850161079d565b91505092915050565b600080fd5b600080fd5b7f4e487b7100000000000000000000000000000000000000000000000000000000600052604160045260246000fd5b61096382610841565b810181811067ffffffffffffffff821117156109825761098161092b565b5b80604052505050565b600061099561070a565b90506109a1828261095a565b919050565b600067ffffffffffffffff8211156109c1576109c061092b565b5b6109ca82610841565b9050602081019050919050565b82818337600083830152505050565b60006109f96109f4846109a6565b61098b565b905082815260208101848484011115610a1557610a14610926565b5b610a208482856109d7565b509392505050565b600082601f830112610a3d57610a3c610921565b5b8135610a4d8482602086016109e6565b91505092915050565b60008060008060808587031215610a7057610a6f610714565b5b600085013567ffffffffffffffff811115610a8e57610a8d610719565b5b610a9a87828801610a28565b945050602085013567ffffffffffffffff811115610abb57610aba610719565b5b610ac787828801610a28565b935050604085013567ffffffffffffffff811115610ae857610ae7610719565b5b610af487828801610a28565b9250506060610b058782880161079d565b91505092959194509250565b6000602082019050610b26600083018461088b565b92915050565b7f4e487b7100000000000000000000000000000000000000000000000000000000600052602260045260246000fd5b60006002820490506001821680610b7357607f821691505b602082108103610b8657610b85610b2c565b5b50919050565b7f4e487b7100000000000000000000000000000000000000000000000000000000600052603260045260246000fdfea2646970667358221220fb516370afbfee27a3a2c5f14d8e90a0c959adc33120715ae175c5a3464ed01464736f6c634300080d0033",
  "immutableReferences": {},
  "source": "// SPDX-License-Identifier: MIT\r\npragma solidity ^0.8.10;\r\n\r\ncontract SolidityDrive {\r\n    struct File {\r\n        string hash;\r\n        string fileName;\r\n        string fileType;\r\n        uint date;\r\n    }\r\n\r\n    mapping(address => File[]) public files;\r\n\r\n    function add(string memory _hash, string memory _fileName, string memory _fileType, uint _date) public {\r\n        files[msg.sender].push(File({hash: _hash, fileName: _fileName, fileType: _fileType, date: _date}));\r\n    }\r\n\r\n    function getFile(uint _index) public view returns(string memory, string memory, string memory, uint) {\r\n        File memory file = files[msg.sender][_index];\r\n        return (file.hash, file.fileName, file.fileType, file.date);\r\n    }\r\n\r\n    function getLength() public view returns (uint) {\r\n        return files[msg.sender].length;\r\n    }\r\n}",
  "sourcePath": "C:\\Users\\ESLA\\Desktop\\Projects\\solidity-drive-app\\contracts\\SolidityDrive.sol",
  "compiler": {
    "name": "solc",
    "version": "0.8.13+commit.abaa5c0e.Emscripten.clang"
  },
  "schemaVersion": "3.4.5",
  "updatedAt": "2022-05-01T20:57:42.297Z",
  "networkType": "ethereum",
  "devdoc": {
    "kind": "dev",
    "methods": {},
    "version": 1
  },
  "userdoc": {
    "kind": "user",
    "methods": {},
    "version": 1
  }
}